{
  "contractName": "Tree",
  "abi": [
    {
      "inputs": [],
      "payable": true,
      "stateMutability": "payable",
      "type": "constructor"
    },
    {
      "anonymous": false,
      "inputs": [],
      "name": "Aborted",
      "type": "event"
    },
    {
      "anonymous": false,
      "inputs": [],
      "name": "ItemReceived",
      "type": "event"
    },
    {
      "anonymous": false,
      "inputs": [],
      "name": "PurchaseConfirmed",
      "type": "event"
    },
    {
      "constant": true,
      "inputs": [],
      "name": "buyer",
      "outputs": [
        {
          "internalType": "address payable",
          "name": "",
          "type": "address"
        }
      ],
      "payable": false,
      "stateMutability": "view",
      "type": "function"
    },
    {
      "constant": true,
      "inputs": [],
      "name": "ong",
      "outputs": [
        {
          "internalType": "address payable",
          "name": "",
          "type": "address"
        }
      ],
      "payable": false,
      "stateMutability": "view",
      "type": "function"
    },
    {
      "constant": true,
      "inputs": [],
      "name": "percentOng",
      "outputs": [
        {
          "internalType": "uint256",
          "name": "",
          "type": "uint256"
        }
      ],
      "payable": false,
      "stateMutability": "view",
      "type": "function"
    },
    {
      "constant": true,
      "inputs": [],
      "name": "seller",
      "outputs": [
        {
          "internalType": "address payable",
          "name": "",
          "type": "address"
        }
      ],
      "payable": false,
      "stateMutability": "view",
      "type": "function"
    },
    {
      "constant": true,
      "inputs": [],
      "name": "state",
      "outputs": [
        {
          "internalType": "enum Tree.State",
          "name": "",
          "type": "uint8"
        }
      ],
      "payable": false,
      "stateMutability": "view",
      "type": "function"
    },
    {
      "constant": false,
      "inputs": [
        {
          "internalType": "address payable",
          "name": "ongAddress",
          "type": "address"
        }
      ],
      "name": "setOng",
      "outputs": [],
      "payable": false,
      "stateMutability": "nonpayable",
      "type": "function"
    },
    {
      "constant": false,
      "inputs": [],
      "name": "abort",
      "outputs": [],
      "payable": false,
      "stateMutability": "nonpayable",
      "type": "function"
    },
    {
      "constant": false,
      "inputs": [
        {
          "internalType": "uint256",
          "name": "treeCost",
          "type": "uint256"
        }
      ],
      "name": "confirmPurchase",
      "outputs": [],
      "payable": true,
      "stateMutability": "payable",
      "type": "function"
    },
    {
      "constant": false,
      "inputs": [
        {
          "internalType": "uint256",
          "name": "treeCost",
          "type": "uint256"
        },
        {
          "internalType": "uint256",
          "name": "percent",
          "type": "uint256"
        }
      ],
      "name": "confirmPurchase",
      "outputs": [],
      "payable": true,
      "stateMutability": "payable",
      "type": "function"
    },
    {
      "constant": true,
      "inputs": [],
      "name": "getBalance",
      "outputs": [
        {
          "internalType": "uint256",
          "name": "",
          "type": "uint256"
        }
      ],
      "payable": false,
      "stateMutability": "view",
      "type": "function"
    }
  ],
  "bytecode": "0x608060405233600260006101000a81548173ffffffffffffffffffffffffffffffffffffffff021916908373ffffffffffffffffffffffffffffffffffffffff160217905550600a600081905550610d4e8061005c6000396000f3fe6080604052600436106100915760003560e01c80637150d8ae116100595780637150d8ae146101ae5780638c1af2e01461020557806393dfea8f1461023d578063a206c62214610294578063c19d93fb146102bf57610091565b806308551a531461009657806312065fe0146100ed57806335a063b4146101185780634d24e9021461012f5780636b429a491461015d575b600080fd5b3480156100a257600080fd5b506100ab6102f8565b604051808273ffffffffffffffffffffffffffffffffffffffff1673ffffffffffffffffffffffffffffffffffffffff16815260200191505060405180910390f35b3480156100f957600080fd5b5061010261031e565b6040518082815260200191505060405180910390f35b34801561012457600080fd5b5061012d610326565b005b61015b6004803603602081101561014557600080fd5b81019080803590602001909291905050506104a4565b005b34801561016957600080fd5b506101ac6004803603602081101561018057600080fd5b81019080803573ffffffffffffffffffffffffffffffffffffffff16906020019092919050505061068e565b005b3480156101ba57600080fd5b506101c36106d2565b604051808273ffffffffffffffffffffffffffffffffffffffff1673ffffffffffffffffffffffffffffffffffffffff16815260200191505060405180910390f35b61023b6004803603604081101561021b57600080fd5b8101908080359060200190929190803590602001909291905050506106f8565b005b34801561024957600080fd5b506102526108e4565b604051808273ffffffffffffffffffffffffffffffffffffffff1673ffffffffffffffffffffffffffffffffffffffff16815260200191505060405180910390f35b3480156102a057600080fd5b506102a961090a565b6040518082815260200191505060405180910390f35b3480156102cb57600080fd5b506102d4610910565b604051808260028111156102e457fe5b60ff16815260200191505060405180910390f35b600260009054906101000a900473ffffffffffffffffffffffffffffffffffffffff1681565b600047905090565b600260009054906101000a900473ffffffffffffffffffffffffffffffffffffffff1673ffffffffffffffffffffffffffffffffffffffff163373ffffffffffffffffffffffffffffffffffffffff16146103e9576040517f08c379a000000000000000000000000000000000000000000000000000000000815260040180806020018281038252601a8152602001807f4f6e6c792073656c6c65722063616e2063616c6c20746869732e00000000000081525060200191505060405180910390fd5b7f72c874aeff0b183a56e2b79c71b46e1aed4dee5e09862134b8821ba2fddbf8bf60405160405180910390a16002600360146101000a81548160ff0219169083600281111561043457fe5b0217905550600260009054906101000a900473ffffffffffffffffffffffffffffffffffffffff1673ffffffffffffffffffffffffffffffffffffffff166108fc479081150290604051600060405180830381858888f193505050501580156104a1573d6000803e3d6000fd5b50565b6000670de0b6b3a764000082029050600073ffffffffffffffffffffffffffffffffffffffff16600160009054906101000a900473ffffffffffffffffffffffffffffffffffffffff1673ffffffffffffffffffffffffffffffffffffffff161415610578576040517f08c379a00000000000000000000000000000000000000000000000000000000081526004018080602001828103825260158152602001807f4f4e472061646472657373206e6f742066696e642e000000000000000000000081525060200191505060405180910390fd5b3460018202146105f0576040517f08c379a00000000000000000000000000000000000000000000000000000000081526004018080602001828103825260178152602001807f57726f6e672076616c756520746f207472616e6665722e00000000000000000081525060200191505060405180910390fd5b7fd5d55c8a68912e9a110618df8d5e2e83b8d83211c57a8ddd1203df92885dc88160405160405180910390a133600360006101000a81548173ffffffffffffffffffffffffffffffffffffffff021916908373ffffffffffffffffffffffffffffffffffffffff1602179055506001600360146101000a81548160ff0219169083600281111561067c57fe5b021790555061068a34610923565b5050565b80600160006101000a81548173ffffffffffffffffffffffffffffffffffffffff021916908373ffffffffffffffffffffffffffffffffffffffff16021790555050565b600360009054906101000a900473ffffffffffffffffffffffffffffffffffffffff1681565b6000670de0b6b3a764000083029050600073ffffffffffffffffffffffffffffffffffffffff16600160009054906101000a900473ffffffffffffffffffffffffffffffffffffffff1673ffffffffffffffffffffffffffffffffffffffff1614156107cc576040517f08c379a00000000000000000000000000000000000000000000000000000000081526004018080602001828103825260158152602001807f4f4e472061646472657373206e6f742066696e642e000000000000000000000081525060200191505060405180910390fd5b346001820214610844576040517f08c379a00000000000000000000000000000000000000000000000000000000081526004018080602001828103825260178152602001807f57726f6e672076616c756520746f207472616e6665722e00000000000000000081525060200191505060405180910390fd5b7fd5d55c8a68912e9a110618df8d5e2e83b8d83211c57a8ddd1203df92885dc88160405160405180910390a133600360006101000a81548173ffffffffffffffffffffffffffffffffffffffff021916908373ffffffffffffffffffffffffffffffffffffffff1602179055506001600360146101000a81548160ff021916908360028111156108d057fe5b02179055506108df3483610b1e565b505050565b600160009054906101000a900473ffffffffffffffffffffffffffffffffffffffff1681565b60005481565b600360149054906101000a900460ff1681565b600360009054906101000a900473ffffffffffffffffffffffffffffffffffffffff1673ffffffffffffffffffffffffffffffffffffffff163373ffffffffffffffffffffffffffffffffffffffff16146109e6576040517f08c379a00000000000000000000000000000000000000000000000000000000081526004018080602001828103825260198152602001807f4f6e6c792062757965722063616e2063616c6c20746869732e0000000000000081525060200191505060405180910390fd5b7fe89152acd703c9d8c7d28829d443260b411454d45394e7995815140c8cbcbcf760405160405180910390a16002600360146101000a81548160ff02191690836002811115610a3157fe5b02179055506000805460648381610a4457fe5b04029050600160009054906101000a900473ffffffffffffffffffffffffffffffffffffffff1673ffffffffffffffffffffffffffffffffffffffff166108fc829081150290604051600060405180830381858888f19350505050158015610ab0573d6000803e3d6000fd5b50600260009054906101000a900473ffffffffffffffffffffffffffffffffffffffff1673ffffffffffffffffffffffffffffffffffffffff166108fc479081150290604051600060405180830381858888f19350505050158015610b19573d6000803e3d6000fd5b505050565b600360009054906101000a900473ffffffffffffffffffffffffffffffffffffffff1673ffffffffffffffffffffffffffffffffffffffff163373ffffffffffffffffffffffffffffffffffffffff1614610be1576040517f08c379a00000000000000000000000000000000000000000000000000000000081526004018080602001828103825260198152602001807f4f6e6c792062757965722063616e2063616c6c20746869732e0000000000000081525060200191505060405180910390fd5b7fe89152acd703c9d8c7d28829d443260b411454d45394e7995815140c8cbcbcf760405160405180910390a16002600360146101000a81548160ff02191690836002811115610c2c57fe5b021790555060008160648481610c3e57fe5b04029050600160009054906101000a900473ffffffffffffffffffffffffffffffffffffffff1673ffffffffffffffffffffffffffffffffffffffff166108fc829081150290604051600060405180830381858888f19350505050158015610caa573d6000803e3d6000fd5b50600260009054906101000a900473ffffffffffffffffffffffffffffffffffffffff1673ffffffffffffffffffffffffffffffffffffffff166108fc479081150290604051600060405180830381858888f19350505050158015610d13573d6000803e3d6000fd5b5050505056fea265627a7a72315820ffd48804fc1ae463c92afb56833c66cf6f749ae09d9125b99ea89d6dfe3f417464736f6c63430005100032",
  "source": "pragma solidity >=0.4.21 <0.7.0;\n\ncontract Tree {\n  enum State { Created, Locked, Inactive }\n\n  uint public percentOng;\n  address payable public ong;\n  address payable public seller;\n  address payable public buyer;\n  State public state;\n\n  constructor() public payable {\n    seller = msg.sender;\n    percentOng = 10;\n  }\n\n  modifier onlyBuyer() {\n    require(msg.sender == buyer, \"Only buyer can call this.\");\n    _;\n  }\n\n  modifier onlySeller() {\n    require(msg.sender == seller, \"Only seller can call this.\");\n    _;\n  }\n\n  event Aborted();\n  event PurchaseConfirmed();\n  event ItemReceived();\n\n  function setOng(address payable ongAddress) public {\n    ong = ongAddress;\n  }\n\n  function abort() public onlySeller {\n    emit Aborted();\n    state = State.Inactive;\n    seller.transfer(address(this).balance);\n  }\n\n  function confirmReceived(uint value) private onlyBuyer {\n    emit ItemReceived();\n\n    state = State.Inactive;\n\n    uint ongValue = value / 100 * percentOng;\n\n    ong.transfer(ongValue);\n    seller.transfer(address(this).balance);\n  }\n\n  function confirmReceived(uint value, uint percent) private onlyBuyer {\n    emit ItemReceived();\n\n    state = State.Inactive;\n\n    uint ongValue = value / 100 * percent;\n\n    ong.transfer(ongValue);\n    seller.transfer(address(this).balance);\n  }\n    \n  function confirmPurchase(uint treeCost) public payable {\n    uint weiCost = treeCost * (10 ** 18);\n    require(ong != address(0x0), \"ONG address not find.\");\n    require(weiCost * 1 wei == uint(msg.value), \"Wrong value to tranfer.\");\n\n    emit PurchaseConfirmed();\n\n    buyer = msg.sender;\n    state = State.Locked;\n    \n    confirmReceived(msg.value);\n  }\n  \n    function confirmPurchase(uint treeCost, uint percent) public payable {\n    uint weiCost = treeCost * (10 ** 18);\n\n    require(ong != address(0x0), \"ONG address not find.\");\n    require(weiCost * 1 wei == uint(msg.value), \"Wrong value to tranfer.\");\n\n    emit PurchaseConfirmed();\n\n    buyer = msg.sender;\n    state = State.Locked;\n    \n    confirmReceived(msg.value, percent);\n  }\n  \n  function getBalance() public view returns (uint) {\n    return uint(address(this).balance);\n  }\n}",
  "sourcePath": "D:\\Projetos\\Faculdade\\cryptotree\\contracts\\Tree.sol",
  "compiler": {
    "name": "solc",
    "version": "0.5.16+commit.9c3226ce.Emscripten.clang"
  },
  "schemaVersion": "3.4.3",
  "updatedAt": "2021-11-24T20:46:48.628Z",
  "devdoc": {
    "methods": {}
  },
  "userdoc": {
    "methods": {}
  }
}